:020000040800F2
:1000000018090020DD0100085B2B00088729000883
:10001000592B0008B9030008653E000800000000E5
:10002000000000000000000000000000B9390008D6
:10003000BB030008000000005D2B0008BB3900086E
:10004000F7010008F7010008F7010008F7010008B0
:10005000F7010008F7010008F7010008F7010008A0
:10006000F7010008F7010008F7010008F701000890
:10007000F7010008F7010008F7010008F701000880
:10008000F7010008F7010008F7010008F701000870
:10009000F7010008F7010008F7010008F701000860
:1000A000F7010008F7010008F7010008F701000850
:1000B000F7010008F7010008F7010008F701000840
:1000C000F7010008F7010008F7010008F701000830
:1000D000F7010008593E0008F7010008F701000881
:1000E000F7010008F7010008F7010008F701000810
:1000F000F7010008F7010008F7010008F701000800
:1001000000000000F7010008F7010008F7010008EF
:100110000000000000000000F7010008F7010008DF
:10012000F7010008F7010008F7010008F7010008CF
:10013000F7010008F7010008F7010008F7010008BF
:10014000F7010008F7010008F7010008F7010008AF
:10015000F7010008F7010008F7010008F70100089F
:10016000F7010008F701000800000000000000008F
:10017000000000000000000000000000000000007F
:10018000F7010008F701000800000000000000006F
:10019000F7010008F701000800000000000000005F
:1001A000000000000000000000000000000000004F
:1001B000F70100080000000000000000F70100083F
:1001C000F7010008DFF810D000F092F8004800476F
:1001D00079400008AFF300801809002006488047E6
:1001E00006480047FEE7FEE7FEE7FEE7FEE7FEE71C
:1001F000FEE7FEE7FEE7FEE7413A0008C50100081A
:100200002DE9F05F0546002092469B46884606464B
:10021000814640241BE0284641464746224600F0DE
:1002200057F853465A46C01A914110D31146184602
:10023000224600F03EF82D1A67EB01084F46224691
:100240000120002100F035F817EB00094E41201E77
:10025000A4F10104DFDC484631462A464346BDE8A6
:10026000F09FD2B201E000F8012B491EFBD270478B
:100270000022F6E710B513460A4604461946FFF772
:10028000F0FF204610BD30B50B460146002020226D
:10029000012409E021FA02F59D4205D303FA02F593
:1002A000491B04FA02F52844151EA2F10102F1DCF3
:1002B00030BD202A04DB203A00FA02F1002070470A
:1002C0009140C2F1200320FA03F319439040704794
:1002D000202A04DB203A21FA02F00021704721FA9B
:1002E00002F3D040C2F12002914008431946704702
:1002F000064C074D06E0E06840F0010394E8070073
:1003000098471034AC42F6D3FFF760FF444300082F
:10031000644300080146014801F0E8BC3C000020AD
:1003200010B5044801F0F4FC042801D0012010BDF0
:10033000002010BD3C00002010B500F015F8012889
:1003400001D0012010BD074801F0F2FC044634B989
:100350004FF40061034801F02BFB00B1012420465B
:1003600010BD00003C00002081B0012000909DF8ED
:10037000000001B07047000038B500240093134618
:100380000A460146034801F001FE00B1012420465F
:1003900038BD00003C00002038B50024009313460F
:1003A0000A460146034801F029FF00B10124204616
:1003B00038BD00003C000020FEE770477047002277
:1003C000AFF3008010B4844601200E4B5C7A002C01
:1003D00016D1587A1C54587A03EB8000C0F804C038
:1003E000587A03F1080C00F80C20587A421C5A7213
:1003F000303008703A2048702F208870CC70002070
:1004000010BC7047080100202DE9F0410446A66D9C
:1004100000F02CFA054694F835000027022806D093
:100420008020606584F834700120BDE8F081206888
:10043000016821F0160101602068416921F0800106
:100440004161206C08B9A06C20B12068016821F0DE
:10045000080101602068016821F001010160206845
:10046000006810F0010F12D000F000FA401B0528C0
:1004700008D920206065032084F8350084F83470A2
:10048000BDE8F0812068006810F0010FECD194F80D
:100490005C003F2101FA00F0B060012084F83500D3
:1004A00084F834700020BDE8F08190F835100229FE
:1004B00003D08021416501207047052180F8351067
:1004C0000068016821F00101016000207047000010
:1004D00070B5044600F0CAF90546B4F1FF3F02D0FA
:1004E00004480078044400F0C1F9401BA042FAD34C
:1004F00070BD0000000000202DE9F84F05460C46B5
:10050000DFF83CA28F4FDFF840B2A5F18049B9F582
:1005100000390ED055450CD0BD420AD05D4508D0FB
:10052000A5F18040B0F5073003D0AC2187A003F0DF
:1005300097FD20680104090C01D0000C03D0AD2107
:1005400082A003F08DFD6068F8B101281DD011284C
:100550001BD0022819D0122817D0B0F5881F14D04C
:10056000B0F5041F11D0B0F5441F0ED0B0F5901FA8
:100570000BD0B0F5081F08D0B0F5481F05D00328F0
:1005800003D0AE2171A003F06BFD00264FF00308ED
:100590004FF00F09012000FA06FB206800EA0B0764
:1005A0005F4540F0C380207900F00300012801D0AE
:1005B00002281ED1E06848B1012807D0022805D0E2
:1005C000032803D0C02161A003F04AFDA968700090
:1005D00008FA00F29143E26802FA00F00843A860CA
:1005E000686820EA0B002179C1F30011B14008438B
:1005F0006860606838EA000013D0A06838B101284C
:1006000005D0022803D0D12150A003F029FDE968CC
:10061000700008FA00F29143A26802FA00F0084361
:10062000E860207900F0030002281AD12069102820
:1006300005D20B2803D00E2801D00D2803D1DE21CE
:1006400042A003F00DFDF00805EB8000026A71077F
:10065000C90E09FA01F39A43236903FA01F1114320
:1006600001622968700008FA00F29143227902F0D1
:10067000030202FA00F008432860606810F4403F6B
:1006800054D04148016841F480410160006800F4A1
:100690008040009026F0030000F1804101F5983180
:1006A000D1F80808B207120F09FA02F320EA03038F
:1006B000A5F18040B0F5003003D0554503D10120AD
:1006C0000CE000200AE0A5F18040B0F5023033D004
:1006D000A5F18040B0F5033030D00720904018439A
:1006E000C1F8080829490868B843626812F4801FF5
:1006F00000D03843086026490868B843626812F49D
:10070000001F00D03843086022490868B843626877
:1007100012F4003F00D0384308601F490868B8430E
:10072000626812F4803F00D038430860761C102EB7
:10073000FFF430AFBDE8F88F0220CFE70320CDE70C
:100740000004024000080240000C02402E2E2F44FC
:100750007269766572732F53544D3332463478780C
:100760005F48414C5F4472697665722F5372632F04
:1007700073746D3332663478785F68616C5F67706C
:10078000696F2E630000000044380240083C0140BD
:100790000C3C0140043C0140003C014070B5054662
:1007A0000C46002C04D14FF4DB7105A003F058FC7B
:1007B000696924EA0100214040EA0140A86170BD56
:1007C0002E2E2F447269766572732F53544D333237
:1007D000463478785F48414C5F4472697665722F81
:1007E0005372632F73746D3332663478785F686147
:1007F0006C5F6770696F2E630000000070B506467D
:100800000C461546002C04D140F29D1108A003F0BF
:1008100027FC35B1012D04D04FF4CF7104A003F0B3
:100820001FFC0DB1B46170BD2004B06170BD00004B
:100830002E2E2F447269766572732F53544D3332C6
:10084000463478785F48414C5F4472697665722F10
:100850005372632F73746D3332663478785F6861D6
:100860006C5F6770696F2E6300000000014880684C
:10087000704700000000002002488168027811449F
:10088000816070470000002010B50B48016841F4FA
:1008900000710160016841F480610160016841F408
:1008A00080710160032000F0D3F8002000F006F80A
:1008B00000F026F8002010BD003C024070B5044650
:1008C0000D4D4FF47A712878B1FBF0F00B490968AF
:1008D000B1FBF0F001F0AAFD08B1012070BD102CB1
:1008E00007D200222146501E00F056F86C6000200E
:1008F00070BD012070BD0000000000200C00002031
:100900000A4808B5016841F480410160006800F4BC
:10091000804000900548001F016841F0805101604F
:10092000006800F08050009008BD0000443802408C
:1009300010B50446002C03DABC2108A003F090FB9C
:10094000002C0ADB04F01F00012101FA00F061090C
:10095000890001F1E021C1F8000110BD2E2E2F44C5
:100960007269766572732F53544D333246347878FA
:100970005F48414C5F4472697665722F5372632FF2
:1009800073746D3332663478785F68616C5F636F5F
:10099000727465782E63000070B504460D461646E5
:1009A000102E03D3A8211AA003F05AFB102D03D355
:1009B000A92117A003F054FB24480068C0F30223C8
:1009C000C3F1070CBCF1040F01D94FF0040C181D42
:1009D000072801D2002000E0D81E012101FA0CF204
:1009E000521E2A40824001FA00F0401E304010435F
:1009F000002C05DB04F1E021000181F8000470BD4A
:100A000004F00F0101F1E021000181F8140D70BD27
:100A10002E2E2F447269766572732F53544D3332E4
:100A2000463478785F48414C5F4472697665722F2E
:100A30005372632F73746D3332663478785F6861F4
:100A40006C5F636F727465782E6300000CED00E0DC
:100A500010B50446072C0BD0062C09D0052C07D066
:100A6000042C05D0032C03D0902109A003F0F8FA40
:100A700004F00700154A11684FF6FF03194041EAD8
:100A8000002040F0FD7040F08060106010BD00005C
:100A90002E2E2F447269766572732F53544D333264
:100AA000463478785F48414C5F4472697665722FAE
:100AB0005372632F73746D3332663478785F686174
:100AC0006C5F636F727465782E6300000CED00E05C
:100AD0002DE9F84F04460025206840F2FE31401E03
:100AE000884204D940F21A51F2A003F0B9FA2078F2
:100AF000FF4E10F0010F18D0606968B1B0F1007FAF
:100B00000AD0B0F1806F07D0B0F1C06F04D04FF4BD
:100B1000A461E8A003F0A4FA3068616920F0C06025
:100B200008433060606900B90125207810F0020F99
:100B300018D0A06968B1B0F1006F0AD0B0F1805F41
:100B400007D0B0F1C05F04D04FF4A661D9A003F084
:100B500087FA3068A16920F0C05008433060A0696E
:100B600000B9012520784FF0000A10F0080F4FF06F
:100B700001087CD0E069B0F5807F79D0B0F5007FC6
:100B800076D0A0F50031B1F5407171D0A0F54031BB
:100B9000B1F540716CD0A0F58021B1F5407167D0FE
:100BA000A0F5A021B1F5407162D0A0F5C021B1F54A
:100BB00040715DD0A0F5E021B1F540717FD0A0F586
:100BC0000021B1F540717AD0A0F51021B1F5407146
:100BD00075D0A0F52021B1F5407170D0A0F530217D
:100BE000B1F540716BD0A0F54021B1F5407166D0F0
:100BF000A0F55021B1F5407161D0A0F56021B1F5AB
:100C000040715CD0A0F57021B1F5407157D0A0F5CE
:100C10008011B1F5407152D0A0F58811B1F5407145
:100C20004DD0A0F59011B1F5407148D0A0F59811C4
:100C3000B1F5407143D0A0F5A011B1F540713ED09F
:100C4000A0F5A811B1F5407139D0A0F5B011B1F5FA
:100C5000407134D0A0F5B811B1F540712FD0A0F596
:100C6000C011B1F540712AD0A0F5C81101E092E0A1
:100C700025E0B1F5407122D0A0F5D011B1F5407159
:100C80001DD0A0F5D811B1F5407118D0A0F5E01134
:100C9000B1F5407113D0A0F5E811B1F540710ED057
:100CA000A0F5F011B1F5407109D0A0F5F811B1F53A
:100CB000407104D040F274517EA003F0D1F98D4808
:100CC000016841F080510160006800F080500090A0
:100CD000DFF82492D9F8000040F48070C9F80000D1
:100CE000FFF7C4FD0746D9F8000010F4807F0CD14F
:100CF000FFF7BCFDC01B022802D90320BDE8F88F16
:100D0000D9F8000010F4807FF2D0DFF8F091D9F824
:100D1000000000F4407058B3A18B01F4407181428F
:100D200026D0D9F8000020F440707549C1F8008041
:100D3000C1F800A0C9F80000D9F8000010F0010FB8
:100D400016D0FFF793FD0746D9F8000010F0020F08
:100D50000ED141F2883BFFF789FDC01B584502D9EF
:100D60000320BDE8F88FD9F8000010F0020FF2D090
:100D7000E0694FF4407131EA000262494AD00868E4
:100D800020F4F8100860D9F80000A18BC1F30B0122
:100D90000843C9F8000020785B4F10F0040F03D01F
:100DA00094F83800C7F8E0012078DFF8609110F07F
:100DB000100F14D0606A50B1B0F5800F07D0B0F5B5
:100DC000000F04D040F2B2513AA003F049F9D9F82B
:100DD0000000616A20F440000843C9F80000207850
:100DE00010F0200F21D0A06A38B1B0F1006F04D00C
:100DF00040F2BD512FA003F033F9D9F80000A16AE9
:100E000020F000600843C9F80000A06AB0F1006F4C
:100E10000AD00AE00A6820F4407022F4F81220F0A8
:100E2000704010430860AEE70125207810F0400FB5
:100E300011D0206A38B1B0F1805F04D040F2CE51B9
:100E40001CA003F00DF9D9F80000216A20F08050B1
:100E50000843C9F80000012D03D02068802840F025
:100E6000E280DFF8AC90C9F868A0FFF7FFFC82468B
:100E7000284D286810F0006F0CD0FFF7F7FCA0EBAE
:100E80000A00022802D90320BDE8F88F286810F074
:100E9000006FF2D1606B38B1B0F5800F04D040F232
:100EA000E95104A003F0DCF86068801E3D2839D9C0
:100EB00032E000002E2E2F447269766572732F5334
:100EC000544D3332463478785F48414C5F44726900
:100ED0007665722F5372632F73746D333266347874
:100EE000785F68616C5F7263635F65782E63000092
:100EF0008C38024040380240007000407038024098
:100F0000400E4742083802400010474294380240E1
:100F1000000047420038024040F2EA51AFF26C0054
:100F200003F09EF8A0683238B0F5BF7F05D940F2D3
:100F3000EB51AFF2800003F093F8606BC7F8D80074
:100F400020684F4F10F0010F01D06169A1B110F07E
:100F5000020F01D0A16979B110F0200F03D0A16A6E
:100F6000B1F1006F08D010F0400F24D0206A10BB00
:100F7000A06AB0F1006F1ED12069801E052805D936
:100F800040F2F751AFF2D40003F06AF8E068801E37
:100F90000D2805D94FF4BF61AFF2E80003F060F807
:100FA000A1686068227C40EA8110217B090641EA41
:100FB000027108433860207810F0800F1ED020693D
:100FC000801E052805D940F21E61AFF2181003F00B
:100FD00047F8E068801E0D2805D940F21F61AFF286
:100FE0002C1003F03DF8A1686068227C40EA811073
:100FF000217B090641EA027108433860C9F868801C
:10100000FFF734FC0746286810F0006F0BD1FFF79C
:101010002DFCC01B022802D90320BDE8F88F2868E8
:1010200010F0006FF3D0208810F4807F10D0E06AB9
:1010300040B1B0F1004F05D040F23C61AFF28C10EE
:1010400003F00EF83068E16A20F000400843306099
:10105000208810F4007F10D0206B40B1B0F5004F15
:1010600005D040F24761AFF2B41002F0F9FF3068EA
:10107000216B20F40040084330600020BDE8F88F69
:10108000843802402DE9F04704460D46002C30D04C
:101090002068401E0E2804D940F25A2185A002F093
:1010A000DFFF95B1012D10D0022D0ED0032D0CD0F5
:1010B000042D0AD0052D08D0062D06D0072D04D00A
:1010C00040F25B217BA002F0CBFFDFF82082D8F852
:1010D0000000EFB200F00700A8420DD288F80070BF
:1010E000D8F8000000F00700A84205D00120BDE8B4
:1010F000F0870120BDE8F08720687D4E10F0020FD8
:101100002BD010F0040F03D0306840F4E050306072
:10111000207810F0080F03D0306840F46040306051
:10112000A068A0B1802812D0902810D0A0280ED09E
:10113000B0280CD0C0280AD0D02808D0E02806D08B
:10114000F02804D040F27E215AA002F089FF3068D6
:10115000A16820F0F00008433060207810F0010F03
:101160004BD0606850B1012808D0022806D003286F
:1011700004D040F285214FA002F072FF60685D4903
:10118000012808D002280DD003280BD0096811F0DF
:10119000020F28D00AE0096811F4003F06D10120AF
:1011A000BDE8F087096811F0007F19D0316821F09F
:1011B000030108433060FFF759FB814630686168DE
:1011C00000F00C00B0EB810F17D041F2883AFFF726
:1011D0004DFBA0EB0900504508D90320BDE8F0877E
:1011E0000120BDE8F0870120BDE8F0873068616824
:1011F00000F00C00B0EB810FE9D1D8F8000000F04E
:101200000700A8420AD988F80070D8F8000000F05A
:101210000700A84202D00120BDE8F087207810F036
:10122000040F18D0E06880B1B0F5805F0DD0B0F544
:10123000A05F0AD0B0F5C05F07D0B0F5E05F04D082
:1012400040F2C3211BA002F00BFF3068E16820F4DC
:10125000E05008433060207810F0080F19D0206962
:1012600080B1B0F5805F0DD0B0F5A05F0AD0B0F5C9
:10127000C05F07D0B0F5E05F04D040F2CA210DA0F6
:1012800002F0EEFE3068216920F4604040EAC100BF
:10129000306000F05DF83168174AC1F30311515C0A
:1012A000C8401649086016480068FFF707FB002091
:1012B000BDE8F0872E2E2F447269766572732F5326
:1012C000544D3332463478785F48414C5F447269FC
:1012D0007665722F5372632F73746D333266347870
:1012E000785F68616C5F7263632E6300003C02404C
:1012F0000838024000380240184300080C00002063
:101300000400002001480068704700000C00002025
:1013100000B5FFF7F7FF04490968044AC1F38221C9
:10132000515CC84000BD0000083802402843000856
:1013300000B5FFF7E7FF04490968044AC1F34231E9
:10134000515CC84000BD0000083802402843000836
:1013500010B51748006810F00C01164816D043105D
:10136000042912D0082911D1134C216801F03F0241
:10137000216811F4800F0AD02068C0F38810A0FB08
:1013800003010023FEF73CFF09E0184610BD216869
:101390000023C1F38811A1FB0001FEF731FF216892
:1013A000C1F30141491C4900B0FBF1F010BD000040
:1013B000083802400024F400043802402DE9F84FB8
:1013C0000446002C28D020680F2804D940F63D514F
:1013D000FAA002F045FE2078DFF81C8410F0010F1F
:1013E000A8F1040571D0606850B1B0F5803F07D016
:1013F000B0F5A02F04D040F64251F0A002F030FE2C
:10140000FE48016801F00C0104290DD0006800F0CD
:101410000C00082803D010E00120BDE8F88FD8F8B0
:10142000000010F4800F08D0286810F4003F4CD062
:10143000606888BB0120BDE8F88F6068B0F5803F28
:1014400014D0B0F5A02F16D0286820F48030286082
:10145000286820F480202860606818B3FFF706FA37
:101460000646286810F4003F0ED02EE0286840F4AD
:1014700080302860F0E7286840F4802028602868E1
:1014800040F480302860E7E7FFF7F0F9801B64281C
:1014900003D90320BDE8F88F17E0286810F4003F57
:1014A000F2D012E0FFF7E2F90646286810F4003F98
:1014B0000BD0FFF7DBF9801B642802D90320BDE8BD
:1014C000F88F286810F4003FF3D12078CC4E10F04C
:1014D000020F4FF0000967D0E06830B1012804D056
:1014E00040F67C51B5A002F0BBFD20691F2804D94D
:1014F00040F67D51B1A002F0B3FDC048016811F083
:101500000C0F15D0006800F00C00082804D1D8F8A2
:10151000000010F4800F0BD0E06878B30120306039
:10152000FFF7A4F90746286810F0020F12D01DE05B
:10153000286810F0020F05D0E068012802D00120D1
:10154000BDE8F88F2868216920F0F80040EAC10062
:10155000286029E0FFF78AF9C01B022802D903207E
:10156000BDE8F88F286810F0020FF3D028682169D1
:1015700020F0F80040EAC100286015E0FFE7C6F857
:101580000090FFF773F90746286810F0020F0BD0A0
:10159000FFF76CF9C01B022802D90320BDE8F88FC1
:1015A000286810F0020FF3D1207810F0080F3CD01B
:1015B000606930B1012804D040F6C5517FA002F027
:1015C0004FFD9048DFF840A26169B9B10121016087
:1015D000FFF74CF90746DAF8000010F0020F24D1AB
:1015E000FFF744F9C01B022802D90320BDE8F88F99
:1015F000DAF8000010F0020FF2D016E0C0F8009008
:10160000FFF734F90746DAF8000010F0020F0CD0AB
:10161000FFF72CF9C01B022802D90320BDE8F88F80
:10162000DAF8000010F0020FF2D1207810F0040F69
:101630006FD00027A06840B1012806D0052804D04B
:1016400040F6F1515DA002F00BFD7048006810F00B
:10165000805F09D16D48016841F0805101600068E8
:1016600000F0805000900127DFF8A4B1DBF8000003
:1016700010F4807F1BD1DBF8000040F48070CBF8C1
:101680000000FFF7F3F88246DBF8000010F4807FDB
:101690000DD1FFF7EBF8A0EB0A00022802D90320D6
:1016A000BDE8F88FDBF8000010F4807FF1D0A0686F
:1016B000DFF860B1012818D005281DD0DBF8000044
:1016C00020F00100CBF80000DBF8000020F004005F
:1016D000CBF80000A06870B3FFF7C8F88246DBF8CB
:1016E000000010F0020F15D03EE0DBF8000040F0E3
:1016F0000100CBF80000EDE7DBF8000040F004004B
:10170000CBF80000DBF8000040F00100CBF800004F
:10171000E0E730E0FFF7AAF8A0EB0A0141F28830D9
:10172000814202D90320BDE8F88FDBF8000010F0F9
:10173000020FEFD018E0FFE7FFF798F88246DBF8DA
:10174000000010F0020F0FD0FFF790F8A0EB0A0195
:1017500041F28830814202D90320BDE8F88FDBF8DE
:10176000000010F0020FEFD1012F04D127480168CB
:1017700021F080510160A06940B1012806D0022803
:1017800004D040F634610DA002F06AFCA069002884
:101790007ED01A4909684FF0FF3701F00C01082983
:1017A00077D0022840D0C6F86090FFF75FF8044673
:1017B000286810F0007F6BD02EE000002E2E2F4402
:1017C0007269766572732F53544D3332463478788C
:1017D0005F48414C5F4472697665722F5372632F84
:1017E00073746D3332663478785F68616C5F7263EE
:1017F000635F65782E6300000438024008380240B9
:1018000000004742800E4742743802404038024090
:101810000070004070380240FFF728F8001B0228D3
:101820007DD90320BDE8F88FE06940B1B0F5800FA5
:1018300005D040F63D61AFF27C0002F011FC206A59
:10184000801E3D2805D940F63E61AFF2900002F0BF
:1018500007FC606A3238B0F5BF7F05D940F63F61BA
:10186000AFF2A80002F0FCFBA06A02280BD004280B
:1018700009D0062807D0082805D04FF46461AFF2DC
:10188000C40002F0EDFBE06A801E0D2808D901E0DB
:101890008AE058E040F64161AFF2E00002F0E0FB80
:1018A000206B801E052805D940F64261AFF2F40096
:1018B00002F0D6FBC6F86090FEF7D8FF8146286894
:1018C00010F0007F0CD0FEF7D1FFA0EB090002283A
:1018D00002D90320BDE8F88F286810F0007FF2D10C
:1018E000216AE069A26A0843616A07EB5202890132
:1018F00041EA0241084394F82C1040EA016094F850
:10190000301040EA0170C8F8000001203066FEF790
:10191000ADFF0446286810F0007F45D100E00CE0E0
:10192000FEF7A4FF001B022802D90320BDE8F88FB0
:10193000286810F0007FF1D036E0286810F0007FB2
:101940007FF43AAF30E001282BD0D8F80000E269EC
:1019500000F48001914221D1226A00F03F019142BE
:101960001CD147F6C071626A0140B1EB821F15D1EC
:10197000A26A00F4403107EB5202B1EB024F0DD1E5
:1019800094F82C2000F07061B1EB026F06D194F84E
:10199000301000F0E040B0EB017F05D00120BDE841
:1019A000F88F0120BDE8F88F0020BDE8F88F000017
:1019B0002DE9F0418AB004460D460026002D0AD0DC
:1019C000B5F5006F07D0B5F5805F04D040F6CC01C7
:1019D0002FA002F045FB032084F83400606C03283C
:1019E0001ED0B5F5805F08D0B5F5006F0AD085B17F
:1019F000A06B40F00060A06316E0A06B40F0805048
:101A0000A06311E0204601F041FFA16B0843A063F1
:101A10000AE0204601F00BFFA16B0843A06303E03E
:101A2000A06B40F08050A063A06B274F4FF00108DF
:101A300028B12068876384F83480012616E0606846
:101A40000490A0680590E06806900795606908908A
:101A5000A069099008990798099A0191029200904B
:101A60002068069B059A049901F02EF94FF4007145
:101A7000206801F043FA28B121688F63A16B084305
:101A8000A063012684F834800AB03046BDE8F081B6
:101A90002E2E2F447269766572732F53544D333254
:101AA000463478785F48414C5F4472697665722F9E
:101AB0005372632F73746D3332663478785F686164
:101AC0006C5F73642E630000FF054000426F120ECE
:101AD0000A70426F120A4A8090F87420836F1206CF
:101AE00042EA13224A6090F878200A72C26F120EFE
:101AF0004A72C26FD0F88030120242EA1362CA60A2
:101B0000D0F88020C2F303520A74D0F88020C2F3C8
:101B10000B224A8290F88000C0F34600087501202D
:101B2000487500207047000030B4426E920F0A7072
:101B3000426EC2F383624A70426EC2F301628A70DF
:101B4000426E120CCA70B0F86420120A0A7190F842
:101B500064204A71826E120DCA80826EC2F3034203
:101B60000A72B0F86820C2F3C0324A72B0F8682036
:101B7000C2F380328A72B0F86820C2F34032CA726F
:101B8000B0F86820C2F300320A7300254D73426C2E
:101B90004FF400744FF0010C002A0DD0012A3BD005
:101BA000026851499163816B41F08051816380F8F3
:101BB00034C030BC01207047B0F86820C36E920575
:101BC000120D42EA93720A61C26EC2F3C2620A75D2
:101BD000C26EC2F302624A75C26EC2F342528A7585
:101BE000C26EC2F38242CA75C26EC2F3C2320A76B4
:101BF0000A69521C42650B7E03F007039B1C9A4046
:101C000042650B7A03F00F030CFA03F383655B0A5A
:101C10005A43C26504660EE090F86820C36E9206CF
:101C2000920A42EA13420A610A69521C9202426510
:101C3000C26584650466B0F86C20C2F380324A76CF
:101C4000B0F86C20C2F3C6128A7690F86C2002F0CD
:101C50007F02CA76026FD20F0A77026FC2F3417217
:101C60004A77026FC2F382628A77026FC2F38352AD
:101C7000CA77026FC2F3405281F8202081F82150C8
:101C8000026FC2F3004281F82220B0F87020C2F344
:101C9000C03281F82320B0F87020C2F3803281F87E
:101CA0002420B0F87020C2F3403281F82520B0F82B
:101CB0007020C2F3003281F82620B0F87020C2F301
:101CC000812281F82720B0F87020C2F3012281F828
:101CD000282090F87000C0F3460081F8290081F8B0
:101CE0002AC030BC00207047FF054000426C0A60EB
:101CF000826C4A60C26C8A60026DCA60426D0A6181
:101D0000826D4A61C26D8A61006EC86100207047B1
:101D100038B50446002000906946204601F070FD69
:101D200010B1A16B0843A0630098C0F3432038BDF5
:101D300070B50446002C00F04D802068A0F1804171
:101D4000B1F5963104D04FF4AC712DA002F088F9B2
:101D5000606838B1B0F5005F04D040F2591128A096
:101D600002F07EF9A06838B1B0F5806F04D04FF46E
:101D7000AD7123A002F074F9E06838B1B0F5007FCE
:101D800004D040F25B111EA002F06AF9206950B144
:101D9000B0F5006F07D0B0F5805F04D04FF4AE719E
:101DA00017A002F05DF9606938B1B0F5804F04D03A
:101DB00040F25D1112A002F053F9A069FF2804D986
:101DC0004FF4AF710EA002F04BF994F834000025E7
:101DD00010B105E0012070BD2577204600F07EF8A7
:101DE000032084F83400204600F026F808B10120D2
:101DF00070BDA5632563012084F83400002070BD08
:101E00002E2E2F447269766572732F53544D3332E0
:101E1000463478785F48414C5F4472697665722F2A
:101E20005372632F73746D3332663478785F6861F0
:101E30006C5F73642E63000070B58AB004460025A1
:101E400029460495059106910791089176200990FD
:101E50000091019102900B460A46206800F034FF81
:101E600010B10AB0012070BD1A4E3560206800F034
:101E7000A9FF012535600220FEF72AFB204601F06C
:101E800063FC38B184F83450A16B0843A0630AB0F6
:101E9000012070BD204601F0DEFB38B184F83450DB
:101EA000A16B0843A0630AB0012070BD4FF400711C
:101EB000206801F023F850B1226807499163A16BB3
:101EC0000843A06384F834500AB0012070BD0AB002
:101ED000002070BDA0802542FF054000F0B595B000
:101EE000044614216846FEF7C3F93C2105A8FEF715
:101EF000BFF92249206888423DD1002460200F9418
:101F000005900D9405A8FEF7E3FD08B1FEF756FA1B
:101F10001B48016841F400610160006800F4006042
:101F2000149017481438016841F0040101600168F9
:101F300001F004011491016841F00801016000689A
:101F4000022500F0080014904FF4F850CDE9000588
:101F500002AA03260C2782E8D00069460948FEF74A
:101F6000CBFA0420CDE9000502AA694682E8D00038
:101F70000548FEF7C1FA15B0F0BD0000002C014085
:101F80004438024000080240000C02402DE9F04FA6
:101F900087B004460D4616469946DDF84080FEF7A8
:101FA00065FC83465DB194F8340001280FD0A06B26
:101FB00040F00050A06307B00120BDE8F08FA06B97
:101FC00040F00060A06307B00120BDE8F08F002062
:101FD000A063E26D06EB0901914207D9A06B40F0C6
:101FE0000070A06307B00120BDE8F08F032184F8E2
:101FF00034102168C862616C012900D076024FF06C
:10200000FF3100914FEA492101919021029102276D
:102010000397002004904FF0010ACDF814A0694600
:10202000206800F09DFDB9F1010F05D92763314605
:10203000206800F0C1FF05E0C4F830A031462068F8
:1020400000F0D3FF68B122686B499163A16B08432C
:10205000A06384F834A00020206307B00120BDE80D
:10206000F08F019E2068406B10F4957F28D1206886
:10207000406B10F4004F15D0A6B10027206800F087
:10208000A5FE2870691C721E030A0B70491C030C04
:102090000B70491C921E000E08704D1C561E7F1CB2
:1020A000082FEBD3FEF7E2FBA0EB0B00404523D259
:1020B000B8F1000F20D02068406B10F4957FD6D087
:1020C0002068416B11F4807F25D0B9F1010F22D92E
:1020D000616C03291FD001F035F8E0B12268464950
:1020E0009163A16B0843A06384F834A000202063AF
:1020F00007B00120BDE8F08F21683F488863A06BDE
:1021000040F00040A06384F834A00020206307B0B2
:102110000320BDE8F08F2068416B11F0080F0DD04F
:1021200035498163A06B40F00800A06384F834A0B7
:102130000020206307B00120BDE8F08F416B11F053
:10214000020F0DD02C498163A06B40F00200A06308
:1021500084F834A00020206307B00120BDE8F08F90
:10216000416B11F0200F26D023498163A06B40F012
:102170002000A06384F834A00020206307B0012071
:10218000BDE8F08F00F022FE2870691C721E030A61
:102190000B70491C030C0B70491C921E000E08703A
:1021A0004D1C561EFEF762FBA0EB0B00404513D200
:1021B000B8F1000F10D02068416B11F4001F01D05E
:1021C000002EDFD1216840F23A50886384F834A0B1
:1021D00007B00020BDE8F08F216807488863A06B36
:1021E00040F00040A06384F834A00020206307B0D2
:1021F0000120BDE8F08F0000FF0540002DE9F04F01
:102200008BB004460E4615469946DDF85080FEF721
:102210002DFB02905EB194F8340001280FD0A06B22
:1022200040F00050A0630BB00120BDE8F08FA06B20
:1022300040F00060A0630BB00120BDE8F08F4FF0CC
:10224000000BC4F838B0E16D05EB0900884207D9EE
:10225000A06B40F00070A0630BB00120BDE8F08FD0
:10226000032084F834002068C0F82CB0606C01288A
:1022700000D06D024FF0FF3004904FEA49200590E6
:1022800090200690CDF81CB0CDF820B04FF0010A98
:10229000CDF824A004A9206800F062FCB9F1010F78
:1022A00007D9202020632946206800F065FF0390AD
:1022B00006E0102020632946206800F076FF039096
:1022C000039870B1216858488863A16B039808434C
:1022D000A06384F834A0C4F830B00BB00120BDE88E
:1022E000F08F059F2068406B10F48D7F30D12068FF
:1022F000406B10F4804F1DD0E7B10025317801917B
:10230000701C7A1E037841EA03210191401C037876
:1023100041EA03410191401C921E037841EA0361A6
:102320000191461C571E01A9206800F0AFFD6D1CED
:10233000082DE3D3FEF79AFA0299401A404523D2BA
:10234000B8F1000F20D02068406B10F48D7FCED004
:102350002068416B11F4807F25D0B9F1010F22D99B
:10236000616C03291FD000F0EDFEE0B122682E4918
:102370009163A16B0843A06384F834A0C4F830B023
:102380000BB00120BDE8F08F216827488863A16B5E
:1023900003980843A06384F834A0C4F830B00BB0AD
:1023A0000320BDE8F08F2068416B11F0080F0DD0BD
:1023B0001D498163A06B40F00800A06384F834A03D
:1023C000C4F830B00BB00120BDE8F08F416B11F0C4
:1023D000020F0DD014498163A06B40F00200A0638E
:1023E00084F834A0C4F830B00BB00120BDE8F08F01
:1023F000416B11F0100F0DD00B498163A06B40F0C1
:102400001000A06384F834A0C4F830B00BB00120F1
:10241000BDE8F08F40F23A51816384F834A00BB0EC
:102420000020BDE8F08F0000FF054000401EB0F125
:10243000807F01D3012070474FF0E0214861044ABA
:10244000F02010700020886107200861002070478C
:1024500023ED00E070477047F8B504462268106825
:10246000D168536900F00F0CBCF1000F0AD110F0D5
:10247000200F07D011F0200F04D02046BDE8F8400F
:1024800001F028BB0025BCF1000F75D003F0010C52
:1024900001F490765CEA06066ED010F0010F06D0CB
:1024A00011F4807F03D0626C42F00102626410F08C
:1024B000040F06D013F0010F03D0626C42F0020249
:1024C000626410F0020F06D013F0010F03D0626CAB
:1024D00042F00402626410F0080F08D001F02002FC
:1024E00052EA0C0203D0626C42F008026264626C31
:1024F000002A35D010F0200F05D011F0200F02D0A7
:10250000204601F0E7FA20684069C0F38010616C52
:1025100011F0080F00D148B3204601F0A7FA206857
:10252000406910F0400F1CD02068143050E8001FA4
:1025300021F0400140E80012002AF5D1E06B60B1C3
:102540005E490165E06BFDF7B0FF002808D0E06B45
:10255000016D01B0BDE8F04008472046FFF77BFF62
:10256000F8BD2046FFF777FFF8BD05E0FFE72046FE
:10257000FFF771FF6564F8BD236B012B7ED110F06E
:10258000100F7BD011F0100F78D0106850680090B9
:1025900050694FF0200310F0400F4FF0020644D076
:1025A000E16B0868406880B20028E4D0A28D8242C6
:1025B000E1D9E085C869B0F5807F2DD020680C3066
:1025C00050E8001F21F4807140E80012002AF5D184
:1025D0002068143050E8001F21F0010140E800128B
:1025E000002AF5D12068143050E8001F21F0400186
:1025F00040E80012002AF5D184F8423025632068B3
:102600000C3050E8001F21F0100140E80012002AB1
:10261000F5D1E06BFDF7F8FE6663A08DE18D401A01
:1026200081B22046FFF716FFF8BDA08DE18D401A5C
:1026300081B2E08D0028F7D00029F5D020680C3059
:1026400050E8002F22F4907240E8002CBCF1000FFB
:10265000F4D12068143050E8002F22F0010240E845
:10266000002CBCF1000FF4D184F8423025632068BF
:102670000C3050E8002F22F0100200E008E040E8A3
:102680000023002BF3D166632046FFF7E3FEF8BD7D
:1026900010F0800F07D011F0800F04D02046BDE865
:1026A000F84001F063BB10F0400FF0D011F0400F84
:1026B000EDD02046BDE8F84001F0FFB95D3A0008D2
:1026C00070B50446002C23D0A0693B493B4A3C4BE3
:1026D00000281FD02068884208D0904206D0984237
:1026E00004D040F2731137A001F0BAFCA0690028B1
:1026F00021D0B0F5807F1ED0B0F5007F1BD0B0F5A3
:10270000407F18D04FF4BA712EA001F0A9FC12E05E
:10271000012070BD206888420DD090420BD09842B5
:1027200009D0A0F18041B1F58A3104D04FF4BC71D9
:1027300024A001F095FCA06838B1B0F5805F04D00A
:102740004FF4BD711FA001F08BFCE06938B1B0F50A
:10275000004F04D040F27B111AA001F081FC94F8E4
:102760004100002520B984F84050204600F048F888
:10277000242084F841002068C16821F40051C16020
:10278000204601F00DFA2068016921F490410161B1
:102790002068416921F02A0141612068C16841F443
:1027A0000051C1606564202084F8410084F8420033
:1027B0006563002070BD000000100140004400402F
:1027C000004800402E2E2F447269766572732F5395
:1027D000544D3332463478785F48414C5F447269D7
:1027E0007665722F5372632F73746D33326634784B
:1027F000785F68616C5F756172742E630000000021
:1028000010B586B0044614216846FDF731FD18491D
:102810002068884229D117480021026842F010023E
:102820000260006800F01000059012481438026839
:1028300042F001020260006800F0010005904FF4D0
:10284000C06000900220CDE9010103200390072021
:10285000049069460848FDF74FFE002211462520E6
:10286000FEF79AF82520FEF763F806B010BD0000C9
:1028700000100140443802400000024090F842300D
:10288000202B01D00220704721B11AB1002303632D
:1028900001F050BA0120704710B50068084988421D
:1028A0000DD1012207490848FFF7E8FFBDE81040B5
:1028B0004FF47A7301220349034800F007B810BDB2
:1028C0000010014014000020C00000202DE9F84352
:1028D00004460E4615461F4694F84100202802D0B3
:1028E0000220BDE8F8837EB175B10020606421202C
:1028F00084F84100FDF7BAFF8146A584E584A0680D
:10290000B0F5805F03D004E00120BDE8F8832069C2
:1029100090B135460026E08C4FF02008C8B14B46F8
:10292000002280212046009701F04FFA30B184F850
:1029300041800320BDE8F8830025ECE7B5B12168AC
:10294000287848606D1CE08C401EE084E08C0028F4
:10295000E5D14B46002240212046009701F035FA90
:1029600058B184F841800320BDE8F883308821689D
:10297000C0F308004860B61CE5E784F841800020F9
:10298000BDE8F8837047FEE710B503490348FDF73B
:1029900016FD0349087010BD1700002030430008E1
:1029A000160000202DE9F04786B014216846FDF797
:1029B0005FFC4E480024016841F004010160016899
:1029C00001F004010591016841F080010160016896
:1029D00001F080010591016841F001010160016889
:1029E00001F001010591016841F0020101600168F7
:1029F00001F002010591016841F0080101600068E1
:102A00003B4F00F008000590012207213846FDF7F2
:102A1000F5FEDFF8E0A0002241F2D0015046FDF7BC
:102A2000EDFE4FF4005001258DE83100694638462F
:102A3000FDF762FD4CF2F8000326CDE90006694679
:102A400002943846FDF758FD0720CDE90005CDE991
:102A5000025469463846FDF74FFD49F6FF00CDE9BF
:102A60000006DFF89490694602944846FDF744FD5D
:102A700040F20770CDE90006694602945046FDF722
:102A80003BFD2803CDE90005CDE9025469465046D7
:102A9000FDF732FD4FF460400227CDE9000702AA9E
:102AA0004FF0050882E8500169465046FDF724FDC5
:102AB0002802CDE90004694648460294FDF71CFD52
:102AC0002820CDE9000702AA694682E86001504645
:102AD000FDF712FDD020CDE90005CDE9025669468B
:102AE0005046FDF709FD06B0BDE8F08730380240DA
:102AF0000008024000040240000002400748064966
:102B00004FF400620160002141608160C0E903125E
:102B10004161022181617047002C01403C0000208E
:102B20000C4810B50A4901604FF4E13141600021C1
:102B300081600C22C160C0E904128161C161FFF7AC
:102B4000BFFD002803D0BDE81040FDF737BC10BD25
:102B500000100140C0000020FEE7704770470000F1
:102B600070B505460C466068B0F1007F04D34FF4A1
:102B7000D27129A001F074FAA26802B3102A1ED003
:102B8000202A1CD0302A1AD0402A18D0502A16D019
:102B9000602A14D0702A12D0802A10D0902A0ED029
:102BA000A02A0CD0B02A0AD0C02A08D0D02A06D039
:102BB000E02A04D040F2A51117A001F051FAE06814
:102BC00030B1022804D04FF4D37113A001F048FAB9
:102BD000206930B1042804D040F2A7110EA001F002
:102BE0003FFA606930B1012804D04FF4D4710AA0D3
:102BF00001F036FA206868626068A862E168A0683F
:102C000062690843216911430843E96A21F0F70129
:102C10000843E862002070BD2E2E2F44726976654D
:102C200072732F53544D3332463478785F48414C99
:102C30005F4472697665722F5372632F73746D33BC
:102C400032663478785F6C6C5F73646D6D632E638D
:102C5000000000000069C0B27047006800F0030087
:102C60007047000070B505460C46002C0AD0042CB5
:102C700008D0082C06D00C2C04D040F28F1103A0F1
:102C800001F0EEF92819406970BD00002E2E2F4486
:102C90007269766572732F53544D333246347878A7
:102CA0005F48414C5F4472697665722F5372632F9F
:102CB00073746D3332663478785F6C6C5F73646DF7
:102CC0006D632E63000000000FB410B50446A4F13C
:102CD0008040B0F5963003D0D4212BA001F0C0F98C
:102CE000039838B10398B0F5005F03D0D52126A032
:102CF00001F0B6F9049838B10498B0F5806F03D0AC
:102D0000D62121A001F0ACF9059838B10598B0F5AD
:102D1000007F03D0D7211CA001F0A2F9069858B17A
:102D20000698B0F5006F07D00698B0F5805F03D025
:102D3000D82115A001F094F9079838B10798B0F59B
:102D4000804F03D0D92110A001F08AF90898FF28FC
:102D500003D9DA210CA001F083F904990398069AAB
:102D60000843059911430843079908430899084304
:102D7000616821F0FF0121F4FC410843606010BC50
:102D800000205DF814FB00002E2E2F44726976653A
:102D900072732F53544D3332463478785F48414C28
:102DA0005F4472697665722F5372632F73746D334B
:102DB00032663478785F6C6C5F73646D6D632E631C
:102DC000000000000321016000207047D0F880005F
:102DD0007047000070B505460C466068402804D373
:102DE0004FF4B0711AA001F03BF9A06840B140283F
:102DF00006D0C02804D040F2611115A001F030F9CE
:102E0000E06850B1B0F5807F07D0B0F5007F04D006
:102E10004FF4B1710EA001F023F9206938B1B0F57B
:102E2000806F04D040F2631109A001F019F9206805
:102E3000A860A168606822690843E16811430843FB
:102E4000E9686FF30B010843E860002070BD0000E3
:102E50002E2E2F447269766572732F53544D333280
:102E6000463478785F48414C5F4472697665722FCA
:102E70005372632F73746D3332663478785F6C6C81
:102E80005F73646D6D632E63000000000968C0F815
:102E900080100020704710B586B00446019137219C
:102EA000029140210391002104914FF4806105912A
:102EB00001A92046FFF78EFF41F2883237212046D4
:102EC00000F0A4F906B010BD10B586B0044641F478
:102ED000801141F00041019129210291402103918B
:102EE000002104914FF48061059101A92046FFF76C
:102EF00071FF204600F05CFA06B010BD10B586B038
:102F00000446019110210291402103910021049176
:102F10004FF48061059101A92046FFF75BFF41F264
:102F200088321021204600F071F906B010BD10B5AE
:102F300086B00446019106210291402103910021AF
:102F400004914FF48061059101A92046FFF742FFEB
:102F500041F288320621204600F058F906B010BD33
:102F600010B586B0044600210191029103910491AD
:102F70004FF48061059101A92046FFF72BFF204601
:102F800000F02CF906B010BD10B586B004464FF421
:102F9000D5710191082102914021039100210491F2
:102FA0004FF48061059101A92046FFF713FF2046E9
:102FB00000F070FA06B010BD10B586B0044601915D
:102FC0001221029140210391002104914FF480616C
:102FD000059101A92046FFF7FDFE41F2883212213A
:102FE000204600F013F906B010BD10B586B00446B7
:102FF00001911121029140210391002104914FF48C
:103000008061059101A92046FFF7E4FE41F2883274
:103010001121204600F0FAF806B010BD10B586B0B8
:10302000044601920721029140210391002104915D
:103030004FF48060059001A92046FFF7CBFE41F2D6
:1030400088320721204600F0E1F806B010BD10B527
:1030500086B004460021019102220292C02203920E
:1030600004914FF48061059101A92046FFF7B2FE5B
:10307000204600F071F906B010BD10B586B00446C8
:10308000019109210291C0210391002104914FF483
:103090008061059101A92046FFF79CFE204600F0C3
:1030A0005BF906B010BD10B586B004460021019151
:1030B000332202924022039204911101059101A949
:1030C0002046FFF787FE41F288323321204600F088
:1030D0009DF806B010BD10B586B0044601910D21D3
:1030E000029140210391002104914FF480610591E8
:1030F00001A92046FFF76EFE41F288320D212046DD
:1031000000F084F806B010BD30B585B005460C4619
:10311000002300934FF0030CCDF804C04FF0400C97
:10312000CDF808C003934FF48063049369462846A2
:10313000FFF750FE22460321284600F05DF905B056
:1031400030BD000010B586B00446002101910C226C
:1031500002924022039204911101059101A9204697
:10316000FFF738FE034A0C21204600F04FF806B066
:1031700010BD000000E1F50510B586B004460191D0
:103180001921029140210391002104914FF48061A3
:10319000059101A92046FFF71DFE41F28832192151
:1031A000204600F033F806B010BD10B586B00446D6
:1031B00001911821029140210391002104914FF4C3
:1031C0008061059101A92046FFF704FE41F2883293
:1031D0001821204600F01AF806B010BD0A494FF435
:1031E000FA520968B1FBF2F141F288325143491EAB
:1031F00002D24FF000407047426B12F0800FF6D0C1
:10320000C5218163002070470C00002010B50346E3
:103210004F484FF4FA5C0068B0FBFCF04243521E8A
:1032200002D24FF0004010BD586B10F0450FF6D0A1
:1032300010F4006FF3D1586B10F0040F02D004208B
:10324000986310BD586B10F0010F02D001209863F5
:1032500010BDC52098631846FFF7FCFC884201D0DA
:10326000012010BD00211846FFF7FCFC3949084237
:1032700001D1002010BD10F0004F02D04FF00070BF
:1032800010BD10F0804F01D0402010BD10F0005F45
:1032900001D0802010BD10F0805F02D04FF480700C
:1032A00010BD10F0006F02D04FF4007010BD10F090
:1032B000806F02D04FF4806010BD10F0807F02D08C
:1032C0004FF4006010BD10F4000F02D04FF4805096
:1032D00010BD10F4800F02D04FF4005010BD10F458
:1032E000001F02D04FF4804010BD10F4801F02D0A8
:1032F0004FF4004010BD10F4802F02D04FF4003086
:1033000010BD10F4003F02D04FF4802010BD10F427
:10331000803F02D04FF4002010BD10F4004F02D0C7
:103320004FF4801010BD10F4804F02D04FF4001005
:1033300010BD10F4005F02D04FF4800010BD10F0FB
:10334000080F02D04FF4000010BD4FF4803010BDC4
:103350000C00002008E0FFFD14494FF4FA52096800
:10336000B1FBF2F141F288324A43521E02D24FF0D1
:1033700000407047416B11F0450FF6D011F4006F1B
:10338000F3D1416B11F0040F03D0042181630420B9
:103390007047416B11F0010F03D0012181630120BF
:1033A0007047C52181630020704700000C00002099
:1033B00010494FF4FA520968B1FBF2F141F2883238
:1033C0004A43521E02D24FF000407047416B11F049
:1033D000450FF6D011F4006FF3D1416B11F0040FDB
:1033E00003D00421816304207047C521816300203C
:1033F000704700000C00002010B503461446244816
:103400004FF4FA520068B0FBF2F041F2883200FB50
:1034100002FCBCF1010C02D24FF0004010BD586B11
:1034200010F0450FF5D010F4006FF2D1586B10F08A
:10343000040F02D00420986310BD586B10F0010FE8
:1034400002D00120986310BD1846FFF703FC8842A4
:1034500001D0012010BDC520986300211846FFF758
:1034600001FC10F4604F05D010F4804F06D04FF4EB
:10347000005010BD000C2080002010BD10F4004F43
:1034800002D04FF4805010BD4FF4803010BD0000CA
:103490000C00002016494FF4FA520968B1FBF2F112
:1034A00041F288324A43521E02D24FF00040704728
:1034B000416B11F0450FF6D011F4006FF3D1416B61
:1034C00011F0040F03D00421816304207047416B85
:1034D00011F0010F03D00121816301207047416B7E
:1034E00011F0400F01D0402181630020704700009F
:1034F0000C00002010B5064C01202070FCF710FFD6
:1035000018B9207820F001002070207810BD00004C
:10351000150000202DE9F04788B004460E46FDF75F
:10352000A5F907460025AA46CDF800A0CDF804A0CD
:1035300008212068FFF7E2FC002848D1B4F85000C9
:1035400001042068FFF7A7FC002840D1401E02902C
:103550004FF00808CDF80C80302004904FF002099D
:10356000CDF81490CDF818A00120079002A920688A
:10357000FFF7F6FA2068FFF796FD002827D12068AC
:10358000406B10F02A0F1AD1EA462068416B11F403
:10359000001F05D0FFF71AFC4AF825006D1C03E058
:1035A000406B10F4005F0AD0FDF760F9C01BB0F16A
:1035B000FF3F0FD02068406B10F02A0FE5D0206845
:1035C000416B11F0080F0AD0C0F83880082008B00D
:1035D000BDE8F08708B04FF00040BDE8F087416BD0
:1035E00011F0020F05D0C0F8389008B00220BDE8F5
:1035F000F087416B11F0200F05D02021816308B0C6
:103600002020BDE8F08740F23A518163019801998A
:10361000000601F47F4140EA0120019901F47F0195
:1036200040EA1120019940EA11603060301D009994
:10363000009A090602F47F4241EA0221009A02F44C
:103640007F0241EA1221009A41EA1261016008B04A
:103650000020BDE8F08710B590B00446012004902A
:103660002068FFF7FAFA002854D0606C032819D0BC
:103670002068FFF7ECFC00284AD100212068FFF702
:10368000F1FA606704212068FFF7ECFAA0670821CF
:103690002068FFF7E7FAE0670C212068FFF7E2FAFD
:1036A000C4F88000606C032805D004A92068FFF7E7
:1036B0002BFD00282CD1606C03281CD0BDF8100015
:1036C000206501042068FFF7D8FC002820D10021E4
:1036D0002068FFF7C7FA606604212068FFF7C2FA86
:1036E000A06608212068FFF7BDFAE0660C2120687B
:1036F000FFF7B8FA206704212068FFF7B3FA000D3E
:10370000E06405A92046FEF70FFA38B14FF080506B
:1037100010B010BD4FF0806010B010BDB4F8500074
:10372000002302042068FFF779FC0028F4D1A26985
:10373000616920690292019100900FCCFFF7C4FAF1
:1037400010B0002010BD00002DE9F84F04460027FE
:103750000097002600252068FFF702FC002818D1FA
:103760002068FFF711FC4FF0010930B1A764206811
:10377000FFF7F6FB00280CD101E0C4F84890A06CDC
:10378000012808D100212068FFF785FB18B14FF010
:103790008050BDE8F88F4FF6FF78DFF860A017E0A3
:1037A00000212068FFF777FB0028F2D151462068FE
:1037B000FFF78AFB18B14FF08050BDE8F88F002169
:1037C0002068FFF74FFA0646F50F0098401C00905E
:1037D0000098404501D2002DE2D00098404503D327
:1037E0004FF08070BDE8F88F16F0804F02D0C4F81B
:1037F000449000E067640020BDE8F88F000010C12D
:1038000070B504460D46002D0ED0B4F850000104EA
:103810002068FFF760FC002805D100212068FFF731
:1038200021FA2860002070BD4FF0006070BD10B517
:1038300082B0044600200090019000212068FFF72C
:1038400011FA10F0007F03D04FF4006002B010BDF9
:1038500069462046FFF75EFE0028F7D1019810F474
:10386000803F0FD0B4F8500001042068FFF713FB2D
:103870000028EBD100212068FFF759FB0028E5D193
:1038800002B010BD02B04FF0806010BD10B582B024
:10389000044600200090019000212068FFF7E2F923
:1038A00010F0007F03D04FF4006002B010BD6946F5
:1038B0002046FFF72FFE0028F7D1019810F4802F43
:1038C0000FD0B4F8500001042068FFF7E4FA002894
:1038D000EBD102212068FFF72AFB0028E5D102B0D6
:1038E00010BD02B04FF0806010BD000070B50546FD
:1038F000054C01202070FCF71FFD18B92846FFF782
:10390000F9FD2070207870BD1500002010B588B03A
:1039100014461748007810F0010F02D008B00320B9
:1039200010BD41B1012909D002290FD0032915D0BA
:10393000042008B010BD002008B010BD6846FCF798
:10394000E9FC06982060002008B010BD6846FCF72E
:10395000E1FC07982080002008B010BD6846FCF705
:10396000D9FC0798400A2060002008B010BD000074
:1039700015000020084610B511461A460124A31E62
:10398000FCF7FAFC20B9FCF7CBFC0028FBD10024A3
:10399000204610BDFFF7AEBD084610B511461A46C9
:1039A0000124A31EFCF7F8FC20B9FCF7B9FC0028A1
:1039B000FBD10024204610BD7047FCF75DBF00001E
:1039C00030B593B034216846FCF752FC14210DA8A1
:1039D000FCF74EFC18480025016841F08051016059
:1039E000006800F0805012901448016841F4404192
:1039F00001600068022400F4404012900120009011
:103A0000000401908001CDE9064008AA0420642149
:103A100082E81300CDE90B046846FDF7CFFC0DA941
:103A20000F2081E83100E002CDE9100503210DA847
:103A3000FDF728FB13B030BD403802400070004055
:103A40000448016841F47001016003494FF00060CF
:103A50000860704788ED00E008ED00E010B5806B6D
:103A60000021C185C184FEF7F6FC10BD01680C3150
:103A700051E8002F22F4907241E80023002BF5D189
:103A80000168143151E8002F22F0010241E80023BF
:103A9000002BF5D1016B012909D101680C3151E8E6
:103AA000002F22F0100241E80023002BF5D1202145
:103AB00080F8421000210163704710B50168CA68A0
:103AC00022F04002CA60202180F84110FEF75AFF20
:103AD000002010BD08B590F84210222901D0022024
:103AE00008BD8268B2F5805F01D1016929B1816AA0
:103AF000B2F5805F1DD052B10BE0816A0268526856
:103B0000C2F308020A80816A891C816209E00269A5
:103B10007AB10268526802F07F020A70816A491C19
:103B20008162C18D491E0904090CC18505D00020A0
:103B300008BD026852680A70F0E70168CA6822F09E
:103B40002002CA600168CA6822F48072CA600168F3
:103B50004A6922F001024A61202180F842100021C6
:103B60004163026B012A03D0FEF796FE002008BDD8
:103B7000016301680C3151E8002F22F0100241E886
:103B80000023002BF5D101680A6812F0100F02D053
:103B90000A6849680091818DFEF75CFCE6E7000049
:103BA0002DE9F041044652496068884204D940F644
:103BB000756150A000F054FAE06838B1B0F5005FCC
:103BC00004D040F676614BA000F04AFA206950B16B
:103BD000B0F5806F07D0B0F5C06F04D040F67761C4
:103BE00044A000F03DFA60694FF6F371084200D13D
:103BF00020B940F678613FA000F032FA20680169F0
:103C0000E26821F44051114301612169A068E26931
:103C100008436169114301432068C26822F40372BA
:103C200022F414421143C16020684169A26921F461
:103C30004071114341612068A0F18041B1F58831A4
:103C40002ED0A0F18041B1F58A3129D0FDF760FB7B
:103C50008446E16900201927354D3226B1F5004F21
:103C600022D06068830F8200ACFB0701FCF7C8FA22
:103C70000146A5FB002040097A42424301EB820144
:103C800006EB0111A5FB0121490901F0F00202EB4D
:103C9000001001F00F01084421688860BDE8F08140
:103CA000FDF746FB8446D4E761684A1840EB000301
:103CB000ACFB0701FCF7A4FA0346A5FB0010410981
:103CC00018460A016FF01803594300EB810006EB18
:103CD000C000A5FB0010400900F0F80102EB410113
:103CE00000F00700084421688860BDE8F08100000A
:103CF000A037A0002E2E2F447269766572732F5361
:103D0000544D3332463478785F48414C5F44726991
:103D10007665722F5372632F73746D333266347805
:103D2000785F68616C5F756172742E6300000000DB
:103D30001F85EB5181628285C28500214164222169
:103D400080F842100169002904D00168CA6842F471
:103D50008072CA6001684A6942F001024A610068E3
:103D6000C16841F02001C1600020704790F8411007
:103D7000212901D0022070478168B1F5805F01D10F
:103D8000016961B1016A4A1C0262026809785160E6
:103D9000C18C491E0904090CC1840AD013E0016AD0
:103DA00002680988C1F308015160016A891C016237
:103DB000EEE70168CA6822F08002CA600068C16844
:103DC00041F04001C160002070472DE9F8430446EE
:103DD000089E0D46174698462068006835EA0000A0
:103DE00028D00020B84232D1B6F1FF3F27D0FCF7EF
:103DF0003DFDA0EB0800B0421ED8EEB12068C168BE
:103E000011F0040F1BD0802D19D0402D17D0016860
:103E100011F0080F13D00025216809684068009050
:103E20002046FFF723FE0820606484F840500120FC
:103E3000BDE8F8830120D5E70320BDE8F8832068BA
:103E4000006835EA000005D00020B842CCD0002040
:103E5000BDE8F8830120F8E70148FEF7FDBA00004D
:103E6000C0000020FEE700000FB4054B10B503A909
:103E7000044A029800F018F810BC5DF814FB00002A
:103E8000654000081000002002E008C8121F08C1A9
:103E9000002AFAD170477047002001E001C1121FCB
:103EA000002AFBD1704700002DE9FF4F8BB09A46E6
:103EB0000F460546002606E025280BD052460D99F0
:103EC00090476D1C761C28780028F5D10FB030463D
:103ED000BDE8F08F0024A0460122604900E00443C1
:103EE00015F8013F203B02FA03F00842F7D1287889
:103EF0002E2817D115F8010F44F004042A280ED0FB
:103F00006FF02F022878A0F1300109290AD808EBB8
:103F1000880102EB410100EB01086D1CF2E757F844
:103F2000048B6D1C287869283ED006DC0028CDD093
:103F300063280BD0642804D136E0732810D075288C
:103F40004BD052460D999047761C85E017F8040B2C
:103F50008DF8000000208DF80100E946012003E003
:103F600057F8049B4FF0FF3061074FF0000401D475
:103F70000AE0641C44450DDA8442FADB19F80410A7
:103F80000029F6D106E0641C8442FCDB19F8041019
:103F90000029F8D1264404E019F8010B52460D9986
:103FA0009047641EF8D257E001CF4FF00A0B00286B
:103FB00002DA40422D2102E0210504D52B218DF8A3
:103FC0002410012103E0E10705D02021F7E70DF1DE
:103FD000200908910CE00021F9E701CF4FF00A0B0E
:103FE000F9E75946FCF74FF901F1300209F8012DC4
:103FF0000028F6D1ADEB090000F1200B600701D4D9
:104000004FF00108D84502DDA8EB0B0000E00020CE
:104010008046002406E009A85246005D0D999047AD
:10402000641C761C08988442F5DB04E0302052467C
:104030000D999047761CB8F10001A8F10108F5DC54
:1040400005E019F8010B52460D999047761CBBF11B
:104050000001ABF1010BF4DC6D1C34E70928010011
:104060007047000003490A685206FCD5C2B24A6094
:10407000704700000010014008B5FCF705FCFFF791
:104080009FFCFEF78FFCFEF74BFDFEF737FDFEF7BA
:104090007BFC144C00202168884700F051F8022373
:1040A0001422E56810A10020A847014612A0FFF7DE
:1040B000DBFEA4680223142269460020A0470146C3
:1040C00013A0FFF7D1FE694616A0FFF7CDFE1B4CEB
:1040D0004FF4FA7501212046FCF760FB2846FCF7F7
:1040E000F7F9F7E730430008534420434152442096
:1040F000544553540000000073642077726974655E
:1041000020726573756C743A25640D0A0000000016
:104110007364207265616B20726573756C743A25E7
:10412000640D0A007364207265616420636F6E74AD
:10413000656E743A0D0A25730D0A000000080240EE
:1041400070B586B069462348FDF7C0FC2249214876
:10415000FDF7CCFD204CD4E90601A0FB01562068F8
:1041600010B101280AD132E0606810B1012802D0F4
:1041700004E01AA000E01EA0FFF776FE9DF80010F4
:1041800020A0FFF771FE26A06168FFF76DFE2BA04F
:10419000A168FFF769FE30A0E168FFF765FE35A072
:1041A0002169FFF761FE3AA06169FFF75DFE3FA05C
:1041B000A169FFF759FE44A0E169FFF755FE290DFB
:1041C00041EA063147A0FFF74FFE06B070BD4DA093
:1041D000D2E700003C0000201C0000204361726414
:1041E00020547970653A534453432056310D0A00E8
:1041F0004361726420547970653A534453432056A6
:10420000320D0A0043617264204D616E7566616310
:10421000747572657249443A202564200D0A0000C5
:104220004361726456657273696F6E3A2020202074
:1042300020202020202564200D0A0000436C61739B
:10424000733A202020202020202020202020202001
:10425000202564200D0A000043617264205243410E
:104260002852656C43617264416464293A25642074
:104270000D0A00004361726420426C6F636B4E62F2
:10428000723A202020202020202564200D0A0000E2
:104290004361726420426C6F636B53697A653A20A4
:1042A00020202020202564200D0A00004C6F67424A
:1042B0006C6F636B4E62723A2020202020202020F9
:1042C000202564200D0A00004C6F67426C6F636B01
:1042D00053697A653A202020202020202025642060
:1042E0000D0A000043617264204361706163697468
:1042F000793A202020202020202564204D420D0ADC
:10430000000000004361726420547970653A5344A0
:1043100048430D0A000000000000000000000000FB
:10432000010203040607080900000000010203045B
:10433000ED380008953900087539000899390008EA
:104340000D39000864430008000000201C00000034
:10435000883E0008804300081C000020FC08000084
:10436000983E00080100000010000000000000005E
:104370000024F40000000000000100000000000024
:04000005080001C529
:00000001FF
